:020000040001F9
:1060000078390020256201003F62010041620100F1
:106010000000000000000000000000000000000080
:1060200000000000000000000000000043620100CA
:10603000000000000000000045620100476201000E
:1060400049620100496201004962010049620100A0
:1060500049620100000000005DBB010043740100C3
:106060004962010049620100496201004962010080
:106070004962010049620100496201004962010070
:10608000496201007D9901004962010049620100F5
:10609000099A010049620100FFA201004962010062
:1060A0004962010049620100000000000000000098
:1060B00000000000000000000000000000000000E0
:1060C00000F002F800F032F80CA030C808382418AC
:1060D0002D18A246671EAB4654465D46AC4201D120
:1060E00000F024F87E460F3E0FCCB6460126334220
:1060F00000D0FB1AA246AB4633431847DC7A0000B7
:10610000FC7A00000023002400250026103A01D369
:1061100078C1FBD8520700D330C100D50B6070475F
:106120001FB5C046C0461FBD10B510BD06F059FCD6
:106130001146FFF7F5FF01F026FB06F071FC03B4F2
:10614000FFF7F2FF03BC06F075FC000040BA704791
:10615000C0BA7047401E00BF00BF00BF00BF00BFF5
:1061600000BF00BF00BF00BF00BF00BF00BFF1D134
:106170007047000040BA7047C0BA7047401E00BF69
:1061800000BF00BF00BF00BF00BF00BF00BF00BF17
:1061900000BF00BF00BFF1D17047000040BA704798
:1061A000C0BA7047401E00BF00BF00BF00BF00BFA5
:1061B00000BF00BF00BF00BF00BF00BF00BFF1D1E4
:1061C0007047000040BA7047C0BA7047401E00BF19
:1061D00000BF00BF00BF00BF00BF00BF00BF00BFC7
:1061E00000BF00BF00BFF1D17047000070B5054689
:1061F0000C46164602E00FCC0FC5103E102EFAD208
:10620000082E02D303CC03C5083E042E07D301CCCD
:1062100001C5361F03E021782970641C6D1C761EB1
:10622000F9D270BD03210C4802680A4302600B4892
:1062300002680A4302600A4880470A480047FEE7AE
:10624000FEE7FEE7FEE7FEE7FEE700000648074937
:10625000074A084B704700002405004054050040E1
:1062600081620100C1600100782900207839002096
:1062700078310020783100201949184808607047AB
:106280001848016AC9B2012927D1416A090724D1F6
:10629000816A09060A0F03D1C26A1206120F0CD0D6
:1062A0000A0F012A03D1C36A1B061B0F05D0032A5C
:1062B00009D1C26A1206120F05D10C4B0A4A5A6064
:1062C000DA130B4B9A61090F042906D1C06A000644
:1062D000000F02D107490120886070470024F400B4
:1062E00000200020C00F00F0DFFF07C000050040C5
:1062F000006C004000060040BFF34F8FFE49FD4890
:10630000C860BFF34F8FFEE7BFF34F8FFA49F948DC
:10631000C860BFF34F8FFEE7BFF34F8FF649F548D4
:10632000C860BFF34F8FFEE7F0B5F44C83B0E17C5B
:10633000A08F01430FD0F24F00282ED0684605F001
:106340003AFAEC4CEC4D00282BD0BFF34F8FEC60A9
:10635000BFF34F8FFEE7E18CE9480A0A02704170F3
:10636000A17E01291BD0002181700025C570042267
:10637000E349E44802F053FF00280ED1A06D03F07A
:1063800057FCFF21913168460180490041804B2133
:106390008580C900C18003F08BFA03B0F0BD802175
:1063A000E2E700980028F8D1D74ED84A7088010A51
:1063B000D74805F0F3F8002805D0BFF34F8FEC6005
:1063C000BFF34F8FFEE7308804220006830DCF49CC
:1063D000384605F07BF90028DFD0BFF34F8FEC6023
:1063E000BFF34F8FFEE710B588050AD5C348817803
:1063F000032907D0022904D1018D491C018501F030
:1064000003FD10BD01F03AFD10BD0120C149000798
:1064100088607047F8B5B94C05460078A16C884291
:1064200002D0A06402F079F8A06C0C283DD20100E3
:106430007944097949188F4438054D50677C94AAEE
:10644000B0B9BCD16878A67C062818D2010079447E
:10645000097949188F440C0402070E11002E07D148
:106460000120A0740BE0701CC0B2A074042806D3F5
:106470000020F6E70420A07401E002F042F8207C3E
:10648000012812D0A07CB04201D002F046F8A07CD6
:1064900000280BD0012816D0022818D0032879D064
:1064A000042802D19C4802F0CDFBF8BD01F0BFFEEC
:1064B000207A02F09FFA9948007C02F027FAE079EE
:1064C00002F013FBF8BD606C02F026FBF8BD02F091
:1064D00009FAF8BD02F076FBF8BD6978904802F041
:1064E00061FA01208B490007C86081138D4A206D35
:1064F00003F034FB0028EFD0BFF34F8F7E497D4877
:10650000C860BFF34F8FFEE702F06AFA01208149AD
:106510000007C8608113834A206D03F01FFB002829
:10652000DAD0BFF34F8F74497248C860BFF34F8F02
:10653000FEE702F065FB684612DF002807D0BFF3D4
:106540004F8F6D496B48C860BFF34F8FFEE76846B9
:1065500000780028C0D0F0203DDFA0203CDF2DDFF8
:10656000F8BD02F065FB01206A490007C86081138D
:106570006C4A206D03F0F2FA0028F1D0BFF34F8F80
:106580005D495C48C860BFF34F8FFEE702E0687862
:10659000052808D002F070FBF8BD6878052802D005
:1065A00002F074FBF8BD01F0ACFFF8BD02F014FB83
:1065B000F8BD02F01BFB012056490007C86081139B
:1065C000584A206D03F0CAFA0028F1D0BFF34F8F6C
:1065D00049494848C860BFF34F8FFEE701F09DFF6F
:1065E000F8BDF0B59BB005A805F0E5F8414D424E69
:1065F000002805D0BFF34F8FF560BFF34F8FFEE744
:1066000005983E4C002803D0012020701BB0F0BD3F
:106610000020009001900290039069460490087059
:106620000872E07A0427002806D0022806D0032842
:1066300031D0042843D137E00220E07208200877E7
:1066400008A908710AA8069012A8089006A9364859
:1066500004F0C1F8002805D0BFF34F8FF560BFF3F9
:106660004F8FFEE76846007F002803D108A8007915
:1066700000280AD002206946087206A80390042068
:1066800001F0ABFA0320E07200E0E77228206946CF
:106690000882488213E0052001F09FFA282069460D
:1066A00008824882E7720AE0052001F096FA192173
:1066B000C90168460182782141820520E07268465E
:1066C00073DF0028A2D0BFF34F8FF560BFF34F8F69
:1066D000FEE7F0B583B001F05BFD0848054E817818
:1066E000054F012500240548002921D0012921D08A
:1066F00002291BE00400FA0500ED00E00420002060
:106700006820002078260020442000208C200020D3
:106710007C200020000500506C2000206026002016
:106720009E2600200B6401000E20002016D026E0DB
:10673000857024E0FB480485407F05F0F8FA0028C6
:1067400005D0BFF34F8FFE60BFF34F8FFEE701F020
:106750005BFBF44802214473817010E0417B491CCB
:10676000C9B2417305290AD1EE4803218170052180
:10677000008D06F03FF8EB49088501F054FBEA482C
:106780000A21007806F036F8002918D1E74845605C
:10679000E848E7494160E8490C600560E748802324
:1067A0000360E748016803220902090A92071143BE
:1067B0000160E4480360E0480460E3480560D948AC
:1067C000816CD848012906D0002914D0D548017C15
:1067D000012907D025E0817C0229F7D2007C00281E
:1067E00015D0F3E7D9490969C908C90719D1407C0F
:1067F000012803D015E0007C012808D1D3480069A6
:10680000C008C00703D1C748C47344740474684601
:106810000570C448CE4A817C68464170022105F06B
:1068200036FBC048817B491CC9B28173022902D35F
:10683000016E012904D0BB48006E022802D0CFE0CF
:1068400002210166B7482421806C4222012804D02D
:10685000072874D00B2873D173E0B248837C022BD5
:1068600004D0002B23D0032B30D0B9E0AD486946CB
:1068700004660B20087003204870B54A0221684660
:1068800005F005FB0120B1490007C8608113A54848
:10689000B04A006D03F062F9002805D0BFF34F8FB6
:1068A000FE60BFF34F8FFEE79E48857698E09D48D7
:1068B0006946C47304660D7004204870A44A02211E
:1068C000684605F0E4FA9748847689E095480466BE
:1068D000684601704270462181705321C1700422C4
:1068E00069469D4802F09BFC082809D0112807D072
:1068F000002805D0BFF34F8FFE60BFF34F8FFEE738
:1069000088480721C576684601704470904A022184
:1069100005F0BDFA83488D49C47304740120000753
:10692000C86081137F488B4A006D03F017F9002877
:1069300056D0BFF34F8FFE60BFF34F8FFEE71BE0D3
:106940004EE07848824A0466684605704470022129
:1069500005F09DFA01207D490007C8608113714848
:106960007C4A006D03F0FAF8002839D0BFF34F8F4E
:10697000FE60BFF34F8FFEE768460170427046210C
:1069800081704521C17004226946734802F047FCBA
:10699000082809D0112807D0002805D0BFF34F8F51
:1069A000FE60BFF34F8FFEE75E48694AC476046617
:1069B000684605704470022105F069FA01206349B8
:1069C0000007C86081135748624A006D03F0C6F89B
:1069D000002805D0BFF34F8FFE60BFF34F8FFEE757
:1069E0005048C17B491CC9B2C173407981421FD351
:1069F0004C48017C00291BD1806C072813D0082843
:106A000011D068460570052069464870504A022139
:106A1000684605F03CFA43484C4905740969090782
:106A200004D5457403E069460870ECE74474C47308
:106A30003C48407E012823D13A48444A417D491CC4
:106A4000417501210907D160424A8913006D03F0A5
:106A500085F8002805D0BFF34F8FFE60BFF34F8F3E
:106A6000FEE73048407D05280AD968460570447025
:106A7000374A022105F00BFA2A48C473047444769D
:106A80002948007800284CD12648807D002827D04E
:106A9000324B254859788278914221D11978407833
:106AA00081421DD11F480121284A44750907D16040
:106AB000284A8913006D03F051F8002805D0BFF370
:106AC0004F8FFE60BFF34F8FFEE7022168460170D3
:106AD00044701F4A05F0DBF912484576C47304740C
:106AE0001048C07D002848D01D490F484A78837857
:106AF0009A4242D10978407881423ED10948012129
:106B0000124A44750907D160124A8913006D03F0D7
:106B100025F8002826D0BFF34F8FFE60BFF34F8FBC
:106B2000FEE756E004200020B4200020007300405F
:106B300068200000007500400071004080E200E025
:106B400004E400E000E100E00070004000050050B7
:106B5000156401000B64010078260020322000201B
:106B6000342000200221684601704470FB4A05F081
:106B70008EF9FB484576C4730474F948017E0029F8
:106B800027D0F849F84B4A7899788A4221D1F549BB
:106B90000A7859788A421CD10121F44A44750907C0
:106BA000D160F34A8913006D02F0D8FF002805D0A8
:106BB000BFF34F8FFE60BFF34F8FFEE702216846A1
:106BC00001704470E54A05F062F9E5484576C47302
:106BD0000474E348007D012826D1E148417D491C29
:106BE000C9B2417502291FD90121E04A0907D160C4
:106BF000DF4A8913006D02F0B1FF002805D0BFF312
:106C00004F8FFE60BFF34F8FFEE70921684601708A
:106C10004470D24A022105F03AF9D148C473047491
:106C2000417D052900D30475CF48007800281DD187
:106C3000CB48817E012902D1018F491C0187CD4BB0
:106C4000C9495A7889788A4206D1C74A1B7852784E
:106C5000934201D185760487C74A53788B4205D188
:106C6000C149127849788A4200D18476BC480079BB
:106C7000012804D1BA48818D408D00F0DDFFBF4866
:106C80000188B748028C8A1A1204120CC28301844C
:106C9000B34805D08484B24EB07E002835D05AE087
:106CA000818C491C89B281840329F4D3B34A0346F9
:106CB00014800484447082793C2050438842EAD88E
:106CC000002AE8D0997E012945D0A5480121A74A8C
:106CD00084840907D160A64A8913006D02F03EFF43
:106CE000002805D0BFF34F8FFE60BFF34F8FFEE744
:106CF0000A21684601714471984A022101A805F0F1
:106D0000C6F89748C4730474C5E79C4800881028E7
:106D100009D371780029716C0AD0F08B091871645D
:106D2000F18C0818F08490480078002807D023E000
:106D300009187164F18C0818F0847570F3E700216C
:106D4000F08C00F079FFF08C002802D0708F401C8E
:106D50007087F48410E08249C88B4A6C12184A6428
:106D6000CA8C101880B2C8847F490978002903D1E1
:106D70000121C90300F060FF7B488178002908D118
:106D80004178002905D10078002802D17448446474
:106D900044877348C18CB42902D9057303B0F0BD90
:106DA000047303B0F0BD10B501F068F810BD10B465
:106DB0000868002810D16A48012242720C7900212B
:106DC000002C0BD003461B7D012C0BD0022C03D1D1
:106DD000002B01D10275417510BC704741720175DD
:106DE00010BC7047002BF5D010BC7047F0B5087888
:106DF000634C644E00275A4D87B0944624281AD01D
:106E0000532860D10297686C6946020E0A73020C1F
:106E10004A73020A8A73C873082202A95A4802F008
:106E2000FEF908284FD000284DD0BFF34F8FF460F3
:106E3000BFF34F8FFEE74878D30752287ED044DC5B
:106E400043287CD014DC41287AD042283BD1887872
:106E5000432838D1012069460870684603F0AFFB2B
:106E6000002830D0BFF34F8FF460BFF34F8FFEE7A1
:106E70004A2866D0502826D1887844286CD003222E
:106E8000684602726246921E4272002A14DD491C54
:106E90003E48002B03D0491C0B78401C0370D205E0
:106EA000120E09D04B784370891C801C521E0B783F
:106EB00012060370120EF5D1EF732F74274A0221C8
:106EC00002A804F0E4FF07B0F0BD53380828FAD256
:106ED00002007A44127992189744B204A703FE0381
:106EE000035AF0E788780A2330385843CA78303894
:106EF0001018C2B208790A2430384B796043303810
:106F00001818C0B2019200908879CA79303860436D
:106F100030381018C3B2087A4A7A303860433038B3
:106F20001018C2B2887A0A253038CC7A68433038D3
:106F30002018C4B2087B4D7B303803E053E153E2A4
:106F4000EFE0CEE10A21484330382818C0B221468C
:106F500001F061F907B0F0BD38E1000015640100EF
:106F60000420002036200020B4200020000500501E
:106F70000B640100382000203A200020AE200020C1
:106F80000400FA0500ED00E0782600209D26002090
:106F9000A88F0028DED0282168460180502141803A
:106FA0004B218780C900C18002F082FCFA48009022
:106FB000A88F00282CD001A804F0FDFB002805D0E4
:106FC000BFF34F8FF460BFF34F8FFEE701980028A7
:106FD0001ED1F24FF24A7888010AF24804F0DEFA34
:106FE000002805D0BFF34F8FF460BFF34F8FFEE74B
:106FF000388804220006830DE949009804F066FBF6
:10700000002805D0BFF34F8FF460BFF34F8FFEE72A
:107010000022E549A86D02F0A1FD00289AD0BFF337
:107020004F8FF460BFF34F8FFEE705216846017272
:107030004772DE4A022102A804F029FF07B0F0BD22
:10704000887831281DD0322822D0332825D04428F2
:107050002AD053282ED04528F0D1C87854283CD0C7
:107060004A790A24303A8B796243303A9B18D04AE5
:10707000303813700979604330380818507007B001
:10708000F0BDC8783028FAD10A20687107B0F0BD89
:10709000C8783028FAD1142003E0C8783028F5D118
:1070A0001E20687107B0F0BD062268460272C978DA
:1070B000417201E748790A2330388A7958433038D9
:1070C0001218BC4802700A79C978303959433039EE
:1070D0005118417007B0F0BD25E108794D2801D065
:1070E000012200E00022B44802704A798B79120232
:1070F000D2184280CA790B7A1202D21882804A7A58
:107100008B7A1202D218C280CA7A097B12025118F5
:10711000AA4A5279891A7D221201891A018107B07F
:10712000F0BD887831281BD0322833D03328F6D1EF
:10713000C8780A2330380A79584330381218A048E2
:107140000A2442704A798B79303A6243303A9A186D
:107150000270C879452837D00020287607B0F0BDE6
:10716000C8780A2330380A795843303812189548BD
:107170000A2442704A798B79303A6243303A9A183D
:107180000270C879452803D00020A87507B0F0BD6B
:107190000120FAE7C8780A2330380A795843303892
:1071A0001018894A0A24507048798B793038604326
:1071B000303818181070C879452803D00020E875B9
:1071C00007B0F0BD0120FAE70120C6E7EF732F7486
:1071D00004216846017202214172744A02A804F037
:1071E00056FE07B0F0BD887853281ED0562867D0C9
:1071F00053281DD05228F4D1C8785428F1D1688F73
:107200006946020A0A724872022202A96F4802F015
:1072100006F80828E5D01128E3D00028E1D0BFF314
:107220004F8FF460BFF34F8FFEE7C8784E2818D019
:10723000C8785428D5D1288F6946020A0A72487244
:10724000022202A9614801F0EAFF0828C9D01128EA
:10725000C7D00028C5D0BFF34F8FF460BFF34F8F66
:10726000FEE704A802300022594D0623A9184F78E2
:1072700039090170092901D9373100E03031017035
:107280003907090F4170092901D9373100E0303140
:107290004170801E521C5B1E1B061B0EE6D10C2289
:1072A00002A94A4801F0BBFF08289AD0112898D0BB
:1072B000002896D0BFF34F8FF460BFF34F8FFEE7E7
:1072C000092244A1414801F0AAFF082889D01128C9
:1072D00087D0002885D0BFF34F8FF460BFF34F8F66
:1072E000FEE7887833280BD0362810D0392813D001
:1072F00030289FD1C87830289CD1AF7107B0F0BD3D
:10730000C8783028FAD11E20A87107B0F0BDC8781F
:107310003028FAD13C2003E0C8783028F5D15A2033
:10732000A87107B0F0BD01206246E870921F2F726D
:10733000002A17DD881C002B03D0401C0378303B4B
:107340002B72467853100DD02C7A0A225443A4197C
:10735000801C0778303C5443E219303A46782A7250
:107360005B1EF1D16046821F07D4287A0A238A184F
:107370005843D27830381018287288782D2802D1D6
:10738000287A40422872604608182038C07F332887
:1073900026D3032025E000006820002044200020A0
:1073A0008C2000207C20002066060000156401006F
:1073B0003A2000203820002094260020B42000200D
:1073C00036200020322000203420002078260020A3
:1073D0006C2000205630302E30302E30310000002E
:1073E0003038E87107B0F0BD88785328FAD1C878F2
:1073F00053280FD04528F5D12F7701206946087210
:107400004F72FE4A022102A804F041FDEF732F746F
:1074100007B0F0BD01202877082168460172477245
:10742000F64A022102A804F032FDEF732F7407B070
:10743000F0BDBFF34F8FF349F148C860BFF34F8FE2
:10744000FEE7F1480168002962D010B50021016013
:10745000EE488068EE4A0121C0B25160ED494843D0
:10746000FF2105F0C7F941004018EB4A80B2904275
:1074700001D3642136E0E949884209D9101A3A213A
:107480004843642105F0C4F96421081AC1B229E017
:10749000E34A904209D9081A18214843A02105F06F
:1074A000B7F92A21081AC1B21CE0DE4988420AD97C
:1074B000101A0C214843FF212D3105F0A9F91221A2
:1074C000081AC1B20EE0D84A90420AD9081A062119
:1074D0004843FF21553105F09BF90621081AC1B236
:1074E00000E00021D14801F085FD00280FD00828D8
:1074F0000DD0CF4988420AD0CE49884207D0BFF389
:107500004F8FC049BE48C860BFF34F8FFEE710BD24
:107510007047F8B5054603F0DAFB284602F076F925
:107520002946C54801F007FC2946C04801F090FCF7
:107530002946C24801F09AFD28880026B04FC04C69
:10754000192828D008DC102816D0112803D1701E65
:107550006084FFF746F8F8BD392801D05528FAD1E4
:107560001321608C76DF0028F5D0BFF34F8FA5483C
:10757000C760BFF34F8FFEE704F086FA002806D0FD
:10758000BFF34F8F9F48C760BFF34F8FFEE7E67290
:10759000A8886084F8BDA8790028FBD1E07A052886
:1075A000D7D1E672FFF71DF8F8BD10B5044603F019
:1075B000A9FE022C01D0032C07D1A1480178002993
:1075C00003D000210170FFF70CF810BD002A07D08E
:1075D000BFF34F8F8B498A48C860BFF34F8FFEE7D8
:1075E00000207047F8B5964D01230024AA6C0129AC
:1075F00026D000294ED11D284CD1286E002849D014
:107600002C66012A37D024207D4E7E4F072A45D094
:10761000082A3FD16946087043204870532088707B
:107620000322864801F0FBFD08284FD011284DD0D9
:1076300000284BD0BFF34F8FFE60BFF34F8FFEE7A4
:107640001D2827D12B66AC73022A0BD0092A21D121
:107650002C662C74EC732C75684603704370674A73
:10766000022115E02C662C74EC730221684601702F
:107670004370624A0CE0EC7368460370287C012872
:1076800009D00320694648702C745C4A0221684680
:1076900004F0FDFBF8BD68464470F5E769460870E4
:1076A00042204870462088704E20C87004226348EB
:1076B00001F0B5FD082809D0112807D0002805D011
:1076C000BFF34F8FFE60BFF34F8FFEE76946A86C94
:1076D00008704C70494A02216846D9E7F8B5584D00
:1076E000584F2C464034A88F062932D20B007B44D9
:1076F0001B79DB189F442D2D2D022D2E002A28D119
:1077000051490B460E789A78DB78FF2E06D14E78D9
:10771000FF2E03D1FF2A01D1FF2B1AD0EE8FB042EA
:1077200017D0060A32438A700343CB7004224649BD
:10773000424801F074FDA98FE987002809D1491E4C
:10774000A9872088401C80B22080B84201D1002047
:107750002080F8BD002AFCD1002129716288521CCA
:1077600092B26280BA4200D16180401C80B2A88788
:10777000B842EED9AF872088401C80B22080B84242
:10778000E7D12180F8BD314988B00320086001208D
:107790002F490007886001F09FF800F007FB0026E2
:1077A0002C4B092207213046009602F031F9144C87
:1077B000144D002805D0BFF34F8FEC60BFF34F8FFF
:1077C000FEE7254A0121254802F09FF9002805D04F
:1077D000BFF34F8FEC60BFF34F8FFEE718480121D6
:1077E0000022C903C06C02F0B9F9002838D0BFF3F9
:1077F0004F8FEC60BFF34F8FFEE700001564010070
:107800000400FA0500ED00E0007100400075004042
:1078100000700040B7050000B80B0000540B0000DA
:10782000B40A000088090000340800006026002027
:1078300004300000013400004C260020782600208F
:1078400004200020602700006820002070070050FE
:10785000000500506C210020D3660100502000205C
:10786000FD4A0021FD4802F050F9002805D0BFF381
:107870004F8FEC60BFF34F8FFEE7F94A0121F948C3
:1078800002F043F9002805D0BFF34F8FEC60BFF33F
:107890004F8FFEE7F44A0121F44802F036F9002840
:1078A00005D0BFF34F8FEC60BFF34F8FFEE7F04979
:1078B000042004F0DBF9002805D0BFF34F8FEC6003
:1078C000BFF34F8FFEE7EB4806600122EA4B5202FE
:1078D0000021EA4804F0F0F9002805D0BFF34F8FEB
:1078E000EC60BFF34F8FFEE7E5490C2008600023F2
:1078F000E44A0121E44804F096F8002805D0BFF3DB
:107900004F8FEC60BFF34F8FFEE704F0BDF8002807
:1079100005D0BFF34F8FEC60BFF34F8FFEE700231E
:107920005022DA49082002F0BBFC002805D0BFF342
:107930004F8FEC60BFF34F8FFEE7684600960670EE
:1079400060DF002805D0BFF34F8FEC60BFF34F8F8F
:10795000FEE7CF4802F0C3FC002805D0BFF34F8FED
:10796000EC60BFF34F8FFEE7CA4802F0C0FC00286E
:1079700005D0BFF34F8FEC60BFF34F8FFEE7C64AD1
:107980000321082004F06EFA002805D0BFF34F8FC2
:10799000EC60BFF34F8FFEE703F039FD002805D000
:1079A000BFF34F8FEC60BFF34F8FFEE701276846B0
:1079B000077303A802F003FE002805D0BFF34F8F22
:1079C000EC60BFF34F8FFEE701A8023005F05EF8D0
:1079D0001E206946C880087AE121384308400C30EF
:1079E000DF2108406946087207204872102088721B
:1079F000AA4800900F71AA4802F04FFE002805D057
:107A0000BFF34F8FEC60BFF34F8FFEE71120694645
:107A100008720622A3A102A87CDF002805D0BFF3CC
:107A20004F8FEC60BFF34F8FFEE70920800178DFB6
:107A3000002805D0BFF34F8FEC60BFF34F8FFEE7F8
:107A4000FF210096913168460196018049004180EE
:107A50004B218680C900C1807ADF002805D0BFF3A2
:107A60004F8FEC60BFF34F8FFEE7002077DF0028D9
:107A700005D0BFF34F8FEC60BFF34F8FFEE70520BB
:107A800000F0ABF88948009089480190029668465A
:107A900006720120014620316846417201200146EC
:107AA0002031684681726946824801F07AF90028DF
:107AB00005D0BFF34F8FEC60BFF34F8FFEE77E48DA
:107AC00064214672009601960296039668460496D3
:107AD000077101730120014610316846417301208E
:107AE0000146103168468173002001466846C17323
:107AF0000120014610316846017469466F4801F063
:107B0000D2F9002805D0BFF34F8FEC60BFF34F8F41
:107B1000FEE76B486946067046708670C670694815
:107B20000090694801F0CEFA002805D0BFF34F8FCE
:107B3000EC60BFF34F8FFEE70520C00301900F20DC
:107B40000004009602900396049605960321684669
:107B50000173C68107745D480690684601F023FEF4
:107B6000002805D0BFF34F8FEC60BFF34F8FFEE7C7
:107B7000012057490007C86081134F48364A006DFD
:107B800001F0ECFF002805D0BFF34F8FEC60BFF38E
:107B90004F8FFEE701264F48B60286802921C1801B
:107BA0004D4901604D4903F086FC002803D1314660
:107BB0004A4803F0CDFDFEF714FD494871DF4848FF
:107BC00001F040F804F0E0F940DF0028FAD0BFF3FC
:107BD0004F8FEC60BFF34F8FFEE701B594B00020EC
:107BE0006946404B08705A6819689B681091324981
:107BF00012931192C8723C2101A804F0F9FD0220F1
:107C00000190012069464872888114A8049005916A
:107C10000320088410A80990002101A801F052FD5A
:107C2000002807D0BFF34F8F30492F48C860BFF3FB
:107C30004F8FFEE715B000BDF8B504460D46684607
:107C400003F0B9FD284F002852D0BFF34F8F2748CB
:107C5000C760BFF34F8FFEE70B6401005420002084
:107C6000A76D010058200020296301005C2000203E
:107C7000FC25002024070050E7630100212000209C
:107C80000C07005066060000942000206C250020A0
:107C900013750100AB750100BC250020CD750100F6
:107CA0000E200020452D42616E640000AF6D010082
:107CB000196301004C2600200420002060260020CB
:107CC000537D0100ED6D0100782600203374010022
:107CD0000005005074200020DD7601007C2000208B
:107CE0006C200020B0CA01000400FA0500ED00E09D
:107CF0000098002805D0234801210171858544851D
:107D0000F8BD214E214A7088010A214803F046FC43
:107D1000002806D0BFF34F8F1E48C760BFF34F8FB8
:107D2000FEE71D48210A01704470290A8170C57060
:107D3000708804220006830D1749144803F08FFC55
:107D40000028DDD0BFF34F8F1248C760BFF34F8FBD
:107D5000FEE708B511480021017041708170C170C3
:107D60000F48009069460F4801F0ACF9002807D091
:107D7000BFF34F8F07490C48C860BFF34F8FFEE732
:107D800008BD0000042000204420002084200020A2
:107D90007C20002000ED00E060200020537D0100E9
:107DA000ED6D0100782600200400FA0570B582B060
:107DB00000206946087004F09BFA0028FBD00023DD
:107DC00001226946302004F0C3FA0028F7D00123CD
:107DD0001A466946312004F0BBFA0028EFD0E54E80
:107DE00000246000811901230222302004F0B0FA3F
:107DF0000546012004F0F2FB002DF2D0641CE4B231
:107E00000E2CEED302B070BD08B53E21684601705D
:107E100000214170012302226946302004F098FAC3
:107E20000028F7D008BD08B53E2168460170402102
:107E30004170012302226946302004F089FA0028AB
:107E4000F7D008BD08B51221684601704021417085
:107E5000012302226946302004F07AFA0028F7D084
:107E600011216846017020214170012302226946D8
:107E7000302004F06DFA0028F7D008BDF0B5B3B09B
:107E80000E21684601720023012202A9302004F06D
:107E90005FFA01231A4602A9312004F059FA684614
:107EA000007A4406640E3F216846017000230122D7
:107EB0006946302004F04CFA0028F7D00123C02294
:107EC00002A9312004F044FA3F25AD0202AE1F277B
:107ED000002C0BD06A46517A127A8800920910431E
:107EE000090610D52843404200B20EE03E21684604
:107EF0000172402141720123022202A9302004F0C4
:107F000027FA33B0F0BDC005C00D6B46DA7A9B7A14
:107F100081B290009B091843120603D528434042C2
:107F200000B201E0C005C00D6B465A7B08181B7BF0
:107F300081B290009B091843120603D528434042A2
:107F400000B201E0C005C00D08188B49C88100F0DF
:107F500014F8641EE4B2381B06214843325C6946BB
:107F60000A72801942784A7282788A72C278CA721A
:107F700002790A7340794873AAE7F8B57F491E224F
:107F80000D46A81C04F0EEFB7D491E220C46A01CE9
:107F900004F0E8FB78480623C18929806988AA880B
:107FA000C90892088A18E9885943090951182A8989
:107FB0000A2352088A186989594309095218A9895C
:107FC0000C23594309095218E9890E235943090919
:107FD0005218298A594309095218698A0C235943AE
:107FE00009095218A98A0A23594309095118EA8A2A
:107FF000062352088A18298B5943090951186A8B9C
:1080000092088918AA8BD208891801822180418997
:10801000491C89B241815B48008800908200801829
:10802000884201D254494881554BE68AA58A5F8926
:10803000588AD9899A891C8AB446AE420CD38542A3
:108040000AD3A04208D38C4206D2914204D2BA424B
:1080500002D2494E01237370AC450CD885420AD830
:10806000A04208D88C4206D9914204D9BA4202D91A
:108070004149012008704048C1888C4200D9C48021
:1080800001898C4200D204810178012970D14178A4
:1080900001296DD13848C1880089814264D9364DA3
:1080A000081A962860DD0521009804F0A3FB3649E4
:1080B0006B890A7829468F89791C89B28C46984247
:1080C00046D800984000984242D329468E782F4DDA
:1080D00070002B52761CF0B288700023CB704B815D
:1080E0000B79042819D3002B17D1410049192039E5
:1080F000CD8B8E8BAD194E8B098B71188D4203D9A8
:108100006D1AAEB289B202E0491B8EB2A9B249081B
:10811000B14202D20020184915E01749102801D3B6
:10812000002B02D0012B09D00EE001230B71002A95
:1081300001D1381888810020887005E0002A01D11B
:1081400060468881002088700B48C48004810BE061
:10815000E878401CE870002068812871A870EC80E5
:108160002C81012A00D1A9810349002008704870A0
:10817000F8BD0000BCCA0100A2200020B2260020E9
:10818000D22600202C2000201E200020F2260020D5
:1081900030B43D480178491CC9B201703C2936D140
:1081A000002101704278521CD2B242703C2A2ED17A
:1081B00041708278521CD2B28270182A27D1817005
:1081C00002794379022A04D0082A08D3D40708D0B8
:1081D0001FE09C0701D01C2404E01D2402E0D4070A
:1081E00017D01F24C578641C6D1CEDB2C570AC425D
:1081F0000DD10124521CD2B2C47002710C2A06D1D6
:108200005B1CDAB204714271642A00D1417130BC46
:1082100070471E24E6E770B41B4C049E039D20703B
:108220006170A270E3702571667170BC704710B503
:10823000154C0A21A07804F0DDFA02460021212025
:1082400000F0F4F9A0780A2104F0D4FA0A460021DB
:108250002C2000F0EBF90A220021392000F0E6F989
:1082600060780A2104F0C6FA02460021452000F099
:10827000DDF960780A2104F0BDFA0A460021512098
:1082800000F0D4F910BD0000B420002008B5002192
:1082900000916946487001230222782003F0E2FE33
:1082A00008BD08B5FEA10968009169464870012320
:1082B0000222782003F0D6FE08BD70B5F9490320EC
:1082C00008600A2004F08AF90125F74CAD03E56047
:1082D000322004F083F9A560642004F07FF970BDBA
:1082E00038B5F049032008600A2004F077F901242A
:1082F000ED4DA403EC60322004F070F9AC60642012
:1083000004F06CF903F07EFE0024AE216846009470
:108310004170012302226946782003F0A3FED52193
:10832000684600944170012302226946782003F0D8
:1083300099FE91216846009441700123022269460A
:10834000782003F08FFEA821684600944170012335
:1083500002226946782003F085FE1F2168460094BA
:108360004170012302226946782003F07BFED3216D
:10837000684600944170012302226946782003F088
:1083800071FE6846009444700123022269467820F9
:1083900003F068FE402168460094417001230222E8
:1083A0006946782003F05EFEAD2168460094417076
:1083B000012302226946782003F054FE8B2168468F
:1083C00000944170012302226946782003F04AFE9E
:1083D00032216846009441700123022269467820C8
:1083E00003F040FEA0216846009441700123022260
:1083F0006946782003F036FEC0216846009441703B
:10840000012302226946782003F02CFEDA21684617
:1084100000944170012302226946782003F022FE75
:1084200002216846009441700A460123694678207B
:1084300003F018FE81216846009441700123022256
:108440006946782003F00EFE33216846009441709F
:10845000012302226946782003F004FED9216846F0
:1084600000944170012302226946782003F0FAFD4E
:108470001F2168460094417001230222694678203A
:1084800003F0F0FDDB2168460094417001230222D5
:108490006946782003F0E6FD40216846009441706B
:1084A000012302226946782003F0DCFDA4216846FE
:1084B00000944170012302226946782003F0D2FD26
:1084C000A621684600944170012302226946782063
:1084D00003F0C8FDAF2168460094417001230222D9
:1084E0006946782003F0BEFD38BD08B50021009133
:1084F000AF206946487001230222782003F0B2FDC4
:1085000008BD08B500210091AE20694648700123DE
:108510000222782003F0A6FD08BDF8B5B02500269C
:10852000684600964570012302226946782003F0D0
:1085300099FD042168460096417001230222694694
:10854000782003F08FFD10216846009641700123CA
:1085500002226946782003F085FD002450A10968B5
:10856000009100206946487001230222782003F020
:1085700079FD641C802CF1D36D1CB42DD0D3F8BDD3
:10858000F7B588B0001DC6B20025AF20694600953A
:10859000487001230222782003F064FD40206946E0
:1085A0000095487001230222782003F05BFD30071C
:1085B000000F03900A9837093C4900241037000146
:1085C0004618099800252018B03069460095487073
:1085D00001230222782003F045FD039869460095A7
:1085E000487001230222782003F03CFD6946009583
:1085F0004F7001230222782003F034FD6800001937
:1086000027A1305C0968049169464874012302225D
:1086100004A9782003F026FD6D1CEDB2082DEDD3E2
:10862000641CE4B2022CCCD30BB0F0BDF7B5001D36
:10863000C4B2302042431E4884B000251718AF2032
:108640006946009548702E4601230222782003F0E7
:1086500009FD4020694600964870012302227820D7
:1086600003F000FD2007000F0090002620091030C5
:108670000190059800243018B03069460294487281
:108680000123022202A9782003F0ECFC009869463D
:10869000029448720123022202A978200AE0000015
:1086A000400000003807005000050050D8CA010003
:1086B000A8CB010003F0D6FC0198694602944872E9
:1086C0000123022202A9782003F0CCFC8049785DC6
:1086D00009680291694648720123022202A97820A2
:1086E00003F0C0FC6D1C641CE4B2EDB20C2CEDD3A5
:1086F000761CF6B2042EBCD307B0F0BDF7B5001D52
:10870000C4B214204243734884B000251718AF2028
:108710006946009548702E4601230222782003F016
:10872000A1FC40206946009648700123022278206F
:1087300003F098FC2007000F00900026200910305D
:108740000190059800243018B030694602944872B0
:108750000123022202A9782003F084FC00986946D4
:10876000029448720123022202A9782003F07AFCC5
:1087700001986946029448720123022202A97820D6
:1087800003F070FC5249785D0968029169464872AD
:108790000123022202A9782003F064FC6D1C641CF2
:1087A000E4B2EDB20A2CEDD3761CF6B2022EC8D399
:1087B00007B0F0BDFFB587B0001D0025C4B2AF20E3
:1087C0006946009517461E4648700123022278200C
:1087D00003F048FC002100914020694648700123C5
:1087E0000222782003F03EFC002000901098002820
:1087F00042D92007000F03902009103005900899F6
:10880000009800244018B030694601944871012353
:10881000022201A9782003F025FC039869460194FF
:1088200048710123022201A9782003F01BFC05985E
:108830006946019448710123022201A9782003F0BE
:1088400011FC002E11D92249785D0968049169460E
:1088500048740123022204A9782003F003FC6D1C54
:10886000641CE4B2ADB2B442EDD300981099401C40
:10887000C0B200908842C2D30BB0F0BD10B57D21CC
:108880000446C90003F0B6FFC2B201211020FFF771
:10889000CDFE6421204603F0ADFF0A2103F0AAFFBC
:1088A0000A4601211820FFF7C1FE0A21204603F0E5
:1088B000A1FF0C460A2103F09DFF0A46012120205A
:1088C000FFF7B4FE224601212820FFF7AFFE10BDBE
:1088D000A0860100B8CD010010B5FFF701FDFFF73C
:1088E0001CFE10BD08B5042000902023EC4A002196
:1088F0003020FFF75FFF08BD08B50420002100907D
:108900008023E84A0846FFF755FF08BD08B5E64949
:108910000969C908CA070221002A09D064281CD3A2
:1089200000911E23E14A00216220FFF743FF08BDAA
:10893000DF480278521CD2B20270052A01D100220F
:1089400002700091D0B23C214843DA491E234218FC
:1089500000216220FFF72EFF08BD4B2807D30091AE
:108960001E23D54A00216220FFF724FF08BD3228CC
:1089700007D300911E23D14A00216220FFF71AFF7E
:1089800008BD1928009106D31E23CD4A002162207C
:10899000FFF710FF08BD1E23C64A00216220FFF723
:1089A00009FF08BDF8B506460D46042000210090D9
:1089B0000E23C44A0846FFF7FDFE0024002D0ED901
:1089C000305D0A213038C2B2204648430E30C0B272
:1089D0000121FFF793FE641CE4B2AC42F0D3F8BD72
:1089E00008B5042000902023B74A00213020FFF76B
:1089F000E1FE08BDF8B50446B44802260078002818
:108A000005D0002C1ADA0125604204B217E00C22CE
:108A100002215E20FFF7B4FD0C2202216620FFF741
:108A2000AFFD0C2202216E20FFF7AAFD0A23A84AFF
:108A3000022176200096FFF7BDFEF8BD00250A2131
:108A4000204603F0E5FE0746CAB202216E20FFF77A
:108A500097FD2046093013280DD2012D05D00C2298
:108A600002216620FFF78CFD14E00B220221662014
:108A7000FFF786FD0EE038460A2103F0C9FECAB2B0
:108A800002216620FFF77CFD20466330C7280DD207
:108A9000012D05D00C2202215E20FFF771FD11E0AF
:108AA0000B2202215E20FFF76BFD0BE064212046C4
:108AB00003F0AEFE0A2103F0ABFECAB202215E2033
:108AC000FFF75EFD834800780096012806D00A2350
:108AD000814A02217620FFF76DFEF8BD0A237F4A06
:108AE00002217620FFF766FEF8BD08B577490A78BF
:108AF0000421002A009108D07949C00142180021C0
:108B000020230846FFF756FE08BD00212023754AA2
:108B10000846FFF74FFE08BD38B504467248017895
:108B200004200029009046D0002120236F4A0846E7
:108B3000FFF740FE6E49204603F05CFEC2B2002102
:108B40002820FFF773FD6B49204603F053FE0A21EE
:108B500003F050FE0A4600213420FFF767FD7D2117
:108B6000C900204603F046FE0A2103F043FE0A46F0
:108B700000214020FFF75AFD6421204603F03AFE11
:108B80000A2103F037FE0A4600214C20FFF74EFD74
:108B90000A21204603F02EFE0C460A2103F02AFE8D
:108BA0000A4600215820FFF741FD2246002164209B
:108BB000FFF73CFD38BD002120234F4A0846FFF750
:108BC000F9FDB7E708B50420009020234B4A0021A7
:108BD0003020FFF7EFFD08BD08B5042000902023EA
:108BE000474A00213020FFF7E5FD08BD08B5042005
:108BF00000902023434A00213020FFF7DBFD08BD11
:108C000038B504242023404A002110200094FFF7A7
:108C1000D1FD20233D4A002130200094FFF7CAFDFA
:108C200020233B4A002150200094FFF7C3FD38BDAC
:108C300008B5042000902023364A00213020FFF799
:108C4000B9FD08BDF8B50746002438194678052057
:108C5000051B142045433209E8B20121FFF74EFD00
:108C600032070A35120FE8B20121FFF747FD641CF5
:108C7000E4B2062CE9D3F8BD08B504200090202307
:108C8000254A00213020FFF795FD08BD08B50420D6
:108C900000902023214A00213020FFF78BFD08BDE2
:108CA000A4D30100F8CE01000005005068D30100F4
:108CB000BA20002078D201002CD30100F0D20100AC
:108CC000B4D2010060D9010098D90100072000202A
:108CD000CCD60100A0200020B8D60100A4D6010007
:108CE000A4D40100F8D001001020002078D10100A8
:108CF000A086010010270000F8D1010024D4010053
:108D000060D80100E0D80100E0D6010060D7010082
:108D1000E0D7010018DA010098DA010018DB010041
:108D200018B401226C4622800B4640896A46002115
:108D3000A5DF18BC704710B50B88002284B0102B3B
:108D40000ED0112B12D0172B08D18979002905D10B
:108D5000694602920A73026802A9904704B010BDE6
:108D6000694602920A7302A9026817E004468879EC
:108D70000828F3D1029201206946888003AB6089FC
:108D800001AA0021A5DF002805D061680029E5D0EF
:108D9000884704B010BD226802A92046904704B05D
:108DA00010BD70B40446086893B00D46002847D043
:108DB000206068680126606068468671224981806B
:108DC0002246083201A93046A0DF002835D1002113
:108DD00004910591069107910891099168460A91BD
:108DE000027C0A200243684602748672174A028196
:108DF00000916A7A0270AA7A42708078F922104053
:108E0000801CE722104042085200684682700C9194
:108E10000D910E910F9110912A7A027302A80C9075
:108E200068460D9006874187868703A823461090E1
:108E300018890A330CAA04A9A2DF13B070BC7047CA
:108E400013B070BC0720704703180000062A00000A
:108E500008B50A88102A1AD0112A1AD0502A1BD114
:108E6000027D002A18D0891D0A8843899A4213D1AD
:108E70000A8B022A10D10268002A0DD0CA7E8B7E8E
:108E800011021943C907C90F07D0002106E08988DC
:108E900001E00021C943418208BD0121009102681F
:108EA0006946904708BDF0B5054693B0086828604C
:108EB0000020C043688208792875FF2028740127A4
:108EC0000E4668468773654981812A1D03A9384685
:108ED000A0DF00287ED1287DF922002400280BD0B5
:108EE000012001461031684601940171717B417186
:108EF00081791140891C8171059406940794089426
:108F000009940A9469460B94087D02210843694636
:108F10000875297D002902D01021084301E0EF21C6
:108F2000084069460875287D002800D001A80A90ED
:108F30000121684681724A4B03810094B37B037020
:108F4000F37B43708078F9221040801CF722104098
:108F5000EF2738404208520068468270327B027424
:108F600002A80C9068460E940F940D9001874487D8
:108F7000818704A81090A888AB1D0CAA05A9A2DFC0
:108F8000002835D1B068002830D0012168468172B0
:108F9000344901810094317C01700020014668460B
:108FA00041708078F9210840801CF7210840384042
:108FB000410849006846817011A8B16800F0B8FB0B
:108FC000014602A80C9068460E940F940D900187FC
:108FD000448700E00CE0818711A810902A46E888B9
:108FE0000E320CA9A3DF002802D100E0EC8120465C
:108FF00013B0F0BD33B486B004466946227C097FC5
:1090000000208A4222D00125684605822174E0882A
:1090100007AB04AA0021A4DF002817D1608A1249F7
:10902000884216D0207D002813D0002000900190A7
:109030000290694603900D82E2880A808D708880D4
:1090400004A8029007A80390608AA6DF08B030BC8D
:10905000704708B030BC0820704700000F180000AF
:10906000192A000008290000FFFF000000281ED078
:1090700000291CD00A88102A14D0112A14D0502A92
:1090800015D1891D0A88038A9A4202D10B8B022BC3
:109090000ED083889A420AD18369002B07D00A8BAD
:1090A0001A311847898801E00021C943818270473D
:1090B000CA7E8B7E11021943C907C90F00D0012156
:1090C00081757047F0B46B4D04002DCD96B00AAE9B
:1090D0002DC67DD000297BD00020C043A082086827
:1090E000A0610025A57521460AA863DF002870D17C
:1090F000217810A8817401260682A21C14A930468A
:10910000A0DF002865D1012001461031684607958F
:10911000017701200146103168464177817FF922AD
:109120001140891C8177019500950295039504955E
:1091300006950178102001436846017007A8059044
:109140002346197810A881730321818101200146EB
:10915000103108A80895017001200146103108A8B7
:1091600041708178E7201140891C0140314308A8F3
:10917000817013A80E9008A80F9010951195129564
:1091800010A8068045801427878058880C330EAAC3
:109190006946A2DF00283BD1009501950295039511
:1091A000049505956846069501780C2001436846AC
:1091B0000170217808A8817002216846018401208D
:1091C000014610316846079501772346012001E0EA
:1091D00021E01DE00146103168464177817FF9208A
:1091E0000140891CE720014031436846817708A887
:1091F0000E9007A80F9010951195129510A8068053
:10920000458087805888231D0EAA6946A2DF002862
:1092100016B0F0BC704716B0F0BC0E20704707B413
:1092200085B000280DD0828A134B9A420CD0827DE3
:10923000002A09D06A46928B142A08D9072008B060
:1092400070470E2008B07047082008B07047002211
:10925000009201920292039282896B461A800391D6
:1092600007A9029101219970808A6946A6DF08B09A
:109270007047000098DB0100FFFF0000FFB585B0DC
:1092800005460220864608980E9C029100902078A0
:109290000190002728883E46002840DD6868B1001C
:1092A00041180A886846028249884182002203A93F
:1092B00004A865DF002833D16846017B714520D1C1
:1092C000002F01D0002200E00222207889184118E6
:1092D0001F2951D8002F07D1401CC3B2581C009A37
:1092E00002992070D1540127217800980A1803A907
:1092F00004A865DF002813D169462078097B40184F
:1093000020702888761CB042C8DC002F0AD0217853
:109310000198019A081A0099401E885402E0002022
:1093200000282AD1079802901020864608980E9CA3
:10933000009020780190002728883E46002843DDD1
:109340006868B10041180A886846028249884182EB
:10935000002203A904A865DF002836D16846017BF6
:10936000714523D1002F01D0002200E00222207895
:10937000891841181F2902D90C2009B0F0BD002F0F
:1093800007D1401CC0B2431C009A029923701154AB
:109390000127217800980A1803A904A865DF00288E
:1093A00013D169462078097B401820702888761CE4
:1093B000B042C5DC002F0AD021780198019A081A22
:1093C0000099401E885402E000200028D5D10020DA
:1093D00009B0F0BDF7B582B00026054616700068EA
:1093E0001446002828D02879039F801C1F2801D903
:1093F0000C2633E11D2069460880B81C7DDF06007D
:1094000018D12868022805D1684600881D2801D88F
:10941000092107E028790821002801D01D2801D959
:1094200068460088421C3A7079702178801C0818C0
:1094300020700026002E7DD1687900281CD020786D
:10944000039F001D1F2876D8684679DF002873D156
:1094500021780322481C20707A5421781922481C54
:1094600020707A54217868460088C9190870000A6B
:1094700048702078801C2070298900291ED0012086
:109480008446EA680398002A79D0227853189B1CF6
:109490001F2B50D81346521C491C2270C1542278ED
:1094A0006746511C2170875423782A891818E96867
:1094B00003F0F4F8207829894018207028690028E2
:1094C00015D00021415622788C46D01C03991F28C4
:1094D00031D8501C022320708B5422780A23501C50
:1094E00020708B5420786246431C23700A54A88A4B
:1094F000002809D028460094062202211430039B3C
:10950000FFF7BCFE060071D1A88B002809D02846C1
:109510000094072203211C30039BFFF7AFFE0600D7
:1095200064D1A88C00280DD015221421284600945F
:10953000243002E08EE058E058E0039BFFF79EFEE7
:10954000060053D1E86A002842D022780399944655
:10955000921D1F2A00D94BE70788062F0DD3192328
:10956000DB01724E9F4201D9B74206D14288062ADA
:1095700003D39A4204D9B24202D0072626E06AE019
:10958000B74205D0B24203D0974201D9072665E021
:109590006246521C052663462270CE54237812265A
:1095A0005A1C2270CE54237802885B181A70120A53
:1095B0005A702278921CD3B22370428858180270D5
:1095C000110A41702078801C20700026002E45D1A1
:1095D000286B002830D0009080882378801CC0B28F
:1095E000811C5918039A1F2902D90C2005B0F0BD1F
:1095F000591C401C2170D0542178FF23481C207036
:10960000535400982178008889180870000A48701F
:109610002078801CC0B2207000998B88002B0BD062
:109620008968002917D080181A4603F037F8009887
:10963000217880880818207028462030017E002973
:109640000CD000956A6B039F002A9FD000250190E3
:10965000002906D802E0072005B0F0BD304605B06D
:10966000F0BD0098416B0C2068430E18B08821783B
:10967000C01C785420781621401CC0B22070395488
:109680002078401CC1B221703088C9190870000AC6
:1096900048702078801CC0B22070B288002A09D09F
:1096A000B1680029D1D0C01902F0F8FF2078B18844
:1096B0004018207001986D1C007EEDB2A842D0D8F1
:1096C0000026CBE730B50C4693B000216A461170F6
:1096D000117100280FD00189002912D0C16800291A
:1096E0000FD0097849070CD502A9FFF773FE0028AF
:1096F00008D102AD00E00025002C0ED02089002802
:1097000002D0072013B030BD01AA0AA92046FFF7F6
:1097100061FE0028F6D10AAA00E00022684603791B
:109720000178284672DF13B030BD0000FFFF000053
:109730000A780270497841700220704770B504467B
:109740000D46084602F088FF2080656070BD00006D
:1097500038B58349834A488890420FD04A78824C72
:10976000521CD2B24A70237B934208D37F4975DFE3
:10977000002803D0A169002900D0884738BD002502
:109780004D70217C002907D03B2176DF002803D0D3
:10979000A169002900D0884761690029EED0684698
:1097A0000095884738BD70B502463CCA6E490E46E2
:1097B0003CC68469436902698C614B61684C002531
:1097C0000A612570006800280CD001882181418839
:1097D00061818188A181C188E18164487ADF0028A4
:1097E0000DD103E061487BDF002808D10020C04391
:1097F000608065705E4A00215E4800F086F970BDA9
:1098000010B55748406800F013FA10BDF8B5564C33
:10981000078853490026E389821C102F16D00D4675
:109820006D68112F22D0122F37D0502F1DD1801DDF
:109830000188994219D1018B022916D1C17E827EFD
:1098400008021043C007C00F0DD11CE0808848807B
:1098500090890882D0894882108A8882508AC8827A
:109860004E70002B01D100F04BF8F8BD0020C04332
:1098700048804E70284600F0DBF90028F5D0A16939
:10988000002908D1F8BD284600F0D2F90028F9D007
:10989000A1690029F6D08847F8BD90880882D08851
:1098A0004882108988825089C88200F029F8F8BD62
:1098B000F8B52B4C01882181418861818188A18183
:1098C000C188E18129487ADF060010D12A480125A4
:1098D00041880838028891420BD34088814208D8D9
:1098E00021484169002902D06846009588473046E2
:1098F000F8BD25701D49608875DF06466570F6E77E
:10990000F8B51D48184D4288083803880026144CC5
:1099100069699A420AD34088824207D8002903D055
:1099200001200090684688472670F8BD20780028FE
:1099300005D00029F8D0684600968847F4E760789B
:1099400000280BD0A9680022606800F007F9002801
:10995000EAD0A9690029E7D08847E5E76968F2E716
:10996000BC200020FFFF000014270020C42000209E
:1099700051970100C0200020CC200020F8B5FE49FE
:109980000020086048608860C860FC490860486042
:10999000FB4E3469601C36D0FA4800274068716974
:1099A000401A05022D0A28204443B0682218906806
:1099B000A84215D8B3692D1AC719546A002B0AD0CA
:1099C000116AD0699847002808D0FF21EEA26431BF
:1099D000FCF792FC02E0D169106A8847601CE2D172
:1099E000B178F078814206D1401CC0B2F0700228F4
:1099F00001D10020F0700006EF49800D0F500120CA
:109A0000EE4900050860F8BD10B500F0FAF910BD88
:109A1000FFB581B00E4617461D46980772D1002D3E
:109A200070D00124E64960040860E649401088606F
:109A3000E5498860E54844602F20FCF78BFBE3484C
:109A40008460CF4C002060612F20FCF783FB002056
:109A500020710A98A0612670A560002E16D02846B5
:109A600028382C46103CF10704D000212830283437
:109A700001602170720809D00021816228231955E4
:109A80005030503401602170521EF6D128204643D8
:109A90007019BB4E032171700146F060002218302E
:109AA0003D4618235D431446D3005B181C705C7060
:109AB0009F7058602818521C032AF5DB0020C04311
:109AC0003061B4700121C248F47009050160C14AD7
:109AD0001068030A1B02C02003431360BE480160E4
:109AE000A84901988860121F1068FF231B02984341
:109AF00003239B031843106048687061002005B081
:109B0000F0BDFFE7072005B0F0BD70B49C4DAC6818
:109B1000002C12D0002A13D0002811D02D78002359
:109B2000002D07DD28265E43A659002E0BD05B1CB6
:109B3000AB42F7DB70BC0420704770BC0820704754
:109B400070BC07207047282501265D4366512C19FB
:109B5000E2616160036070BC00207047F0B4884B24
:109B60009D68002D0CD01C78A04201D2052902D29C
:109B7000F0BC07207047282444432E59012E02D000
:109B8000F0BC0820704764196468012C13D00026CB
:109B9000924D6C68E405E40D1DD0103C0DD52707EF
:109BA0003F0F083FBF08BF007D19ED69A407E40E11
:109BB000E540AC090AE00E46EAE7A508884FAD008B
:109BC000ED192D68A407E40EE540AC09E4B2012CC0
:109BD00027D0032C27D002248446DB68E000C41879
:109BE0006378A7781D465B1C9F4200D1002327782D
:109BF0009F421AD0182067684543781915D001256F
:109C00000560654645605F4D6D680661856042612F
:109C1000C16001206949637000050860F0BC002044
:109C200070470024D8E70124D6E7F0BC0420704731
:109C3000534A9168002909D01378984201D307202C
:109C4000704728234343C958012901D00820704791
:109C5000F0B4624B59680424C905C90D00291BD012
:109C600010390BD50D072D0F083DAD08AD00EB18D1
:109C7000DB698907C90ECB40990908E08B08584D6C
:109C80009B005B191B688907C90ECB409909C9B2B3
:109C900001291FD003291FD00221D268C9008A18C8
:109CA000517895780B46491C8D4200D100211678D9
:109CB00000258E4212D0182756687B43F3180DD02A
:109CC00002241C60586051703C49E004086028463A
:109CD000F0BC70470021E0E70121DEE72046F0BC40
:109CE000704770B4264A9068002814D03B4B5868DF
:109CF000C105C90D042000291ED010390ED50C074E
:109D0000240F083CA408A400E318DB698907C90EE6
:109D1000CB4099090BE0082070BC70478B08304C91
:109D20009B001B191B688907C90ECB409909C9B252
:109D3000012957D0032957D00221D268C9008A18B7
:109D4000517894780B46491C8C4200D1002115783B
:109D500000248D42E0D0182655687343EB18DBD001
:109D600003201860001F586051700120134900053E
:109D70000860204670BC704740110140001101404E
:109D8000D4200020001501402E2E5C2E2E5C2E2E9D
:109D90005C2E2E5C2E2E5C536F757263655C617059
:109DA000705F636F6D6D6F6E5C6170705F74696D15
:109DB00065722E6300000000F020002000E200E049
:109DC00080E100E040130140001301400010014019
:109DD00080E200E014E400E000E100E000ED00E0DB
:109DE00000E400E00021A8E70121A6E7FE49496858
:109DF000016000207047401A0002000A1060002035
:109E00007047F0B5002087B0C0430290F748416921
:109E100001918378C4780269A34211D05B1CDBB244
:109E20008370022B01D1002383701B06F04C9B0D25
:109E3000E358009359180902090A4161012101E020
:109E400000210091E948069204914078411EC9B270
:109E50000391002870D0E548C900C2688F183E7889
:109E60007978B1427BD0182070437968761C081845
:109E7000B978F6B2B14200D100260168022902D0B9
:109E8000032969D15AE0406828210246D74B4A434A
:109E9000996852180592127E002A5DD01D69AC4661
:109EA0002C466A1C44D0844207D0254628225443BD
:109EB0006218546A621CF6D13AE0601C38D0A542A0
:109EC00023D1604628225043C84B4018406A18618D
:109ED000401C1AD10120C74940040860C6494010FF
:109EE0008860C6498860C649012048602F20FCF779
:109EF00031F9C34901208860BC49002048612F2006
:109F0000FCF728F9B9490020087128204443B748D4
:109F1000282381685D4360188268406A6B18586224
:109F2000431C05D028235843401881688918816054
:109F30000599002008760FE018E010E0AB4B186997
:109F4000411C09D09A6800212824604380180176BA
:109F5000406A441CF8D118617878B04283D10398E4
:109F6000411EC9B20391002800D074E79F480699AA
:109F70000069884201D0012100E000210391049989
:109F800000292AD001990024009A8C46401C22D036
:109F900096488668954928250869034668438019CC
:109FA0008568954202D9A91A816014E0521B2C19C8
:109FB000002585600576456A0D614169002908D054
:109FC00067463F193F023F0AC7600161029941623B
:109FD00002936D1CDED10120039002988349019009
:109FE0000869059049784A1ED2B2009200296ED0C5
:109FF0007E498B684A690492C96806910099CA0033
:10A000000699551880E00199491C06D0019A28212B
:10A010005143C9184C6A01941EE0297818224A431A
:10A020006C68491CC9B2A4182970AA78914201D160
:10A03000002129706268282151432668C918012E21
:10A0400066D10E7E002E63D1A668CE60E6680E61F2
:10A0500026694E6164690C62CC68049E694FA61B38
:10A060003602360ABE4203D20C6934198C600AE00B
:10A07000049E341B24020E69240AA64201D9341B13
:10A0800000E000248C600024CC600C6101240C767C
:10A09000A41E4C6228215143C9188C46411C14D07F
:10A0A00061468C6828214143C91889688C420FD8C1
:10A0B00028214143C91889680C1B28214143C9182C
:10A0C0008C606146486210461EE010461CE02CE0A1
:10A0D0000146029002E00291716AE41B4E1C0BD013
:10A0E00028264E43F618B768A742F4D328274F43D3
:10A0F000FF18BF683F1BB7606646B4607162029983
:10A1000028246143C9184A620199491C00D07AE7A2
:10A1100029786A789142FAD1009A511EC9B2009109
:10A12000002A00D06AE731490861304C059920695E
:10A13000884202D1039900293CD0411C3CD02B49D4
:10A14000282250438A6880188568274844684F69E8
:10A15000E01B0602360A0879F61C002813D10120FC
:10A1600025490004486025494860274940000860A7
:10A17000264908602249012008602F20FBF7EAFFEA
:10A180001A4901200871AE4200D33546E819000291
:10A190001F49000A086014494968001B091B09028D
:10A1A000090A0002C91C000A814203D90120194989
:10A1B0004004086007B0F0BD01250E49680408603E
:10A1C0000D49401088600D4988600D4E75602F2044
:10A1D000FBF7C0FFB56000252F206561FBF7BAFFD4
:10A1E000257107B0F0BD000000150140D42000200B
:10A1F000F020002080E100E0401301400013014006
:10A2000000100140FFFF7F0080E200E000E100E07D
:10A210004015014000E200E010B508461146FCF789
:10A2200073F810BDF8B53E4C2078002837D020696F
:10A23000002807D00025E068002805D00026002D62
:10A2400004D013E00125F6E70126F8E7684651DF60
:10A25000052806D0002806D032A26921FCF74CF868
:10A2600004E0012502E0216900988847002E12D100
:10A27000608869460880A06861DF052806D000284C
:10A2800006D028A28021FCF737F804E0012602E07E
:10A29000E168A0688847002DD8D0002ECFD0F8BD47
:10A2A00030B4002901D08C0702D0072030BC7047A1
:10A2B0001B4CA16062802949636010DF0028F5D142
:10A2C00001202070162026DF30BC704711DF0028E7
:10A2D00001D0012100E00021114A117070470028CF
:10A2E00003D00F49C860002070470E207047002837
:10A2F00003D00B490861002070470E20704710B54D
:10A3000007484068002808D08047002804D0FF2173
:10A3100004A23331FBF7F0FF10BDFFF783FF10BD40
:10A32000F82000202E2E5C2E2E5C2E2E5C2E2E5C15
:10A330002E2E5C536F757263655C73645F636F6D23
:10A340006D6F6E5C736F66746465766963655F6874
:10A35000616E646C65722E630000000019A201003A
:10A3600000207047F0B585B007460D4610206946BD
:10A37000088268780C214843FA4E04AA80190089A3
:10A380006946AADF002834D1687814214843F64C86
:10A3900069460019001D0A8A02F030F90028687821
:10A3A00006D0142148432158002911D0EF4E10E067
:10A3B0000C2141438919897A89071AD41421484309
:10A3C00000190021016041608160C160016110E0FD
:10A3D000E74E69460A8A22506878142148430419D6
:10A3E000201D6946FBF702FF302314222146384620
:10A3F000B047002005B0F0BD70B506460C46487861
:10A4000014214843D84D0A4640193023314601F003
:10A410005DF9002806D16178142251436A58521C14
:10A4200000D16A5070BDF0B4407814234343CE4C41
:10A43000CC4E0C270021E558784380190A46002DA0
:10A4400007D0867A770604D5B60602D41919091DF5
:10A45000AAB20089A9DF002800D0C648F0BC704726
:10A46000002806D0FF21017041708170C17000206A
:10A470007047C1487047FFB5C0488DB00068169E50
:10A480000F461D46002856D0482E54D8012006906D
:10A49000FF20694648738873C873002008730870EA
:10A4A000044604960595A1B20AAAB54801F076F8CB
:10A4B000002806D108220AA90D9802F09FF800286A
:10A4C00017D0641C072CEED36846847BFF2C32D057
:10A4D000042F11D0AB481821281A02F08BF901265D
:10A4E00007282AD204A801900F99A748002912D062
:10A4F00016E068468473E7E7482E03D0402069469B
:10A50000087002E0202069460870C0B203210843A9
:10A510006946087048E031464268A14011420AD0BD
:10A5200031464268A1408A43426020206946087053
:10A530000698002830D111B0F0BD94481821281A8F
:10A5400002F058F900280BD0874C1421281B02F088
:10A5500051F9002811D040206946087011B0F0BDB3
:10A5600004A8019020206946087000204873182034
:10A5700044438448201805900EE030206946087056
:10A5800000204873CE737749897A890704D4206004
:10A590006060A060E060206169460878032F0CD0FD
:10A5A000022108436946087004A8019073480F9A75
:10A5B000036803A8984711B0F0BD3043F3E7F1B545
:10A5C00084B0049800284BD06C4800260660867240
:10A5D00001250C388572A91E0181FF27C77202F080
:10A5E0005AFA6B48674F066446648664C664002462
:10A5F000066518206043C5192846113002F03EFA5E
:10A600002E606E60AE60FF21EE6029745E48E975D1
:10A6100001224368A240934343605E480155641C95
:10A62000072CE6D34821684681800721C1805A481B
:10A6300000905349684600F03EFF00280ED1524D6D
:10A64000012028700498007800280CD0694688887A
:10A65000C988484381B24A4801F07AF805B0F0BD94
:10A66000454805B0F0BD0024A1B202AA444800F05C
:10A6700095FF002809D118206043C0190023182233
:10A6800002A901F023F8002802D02E7005B0F0BD19
:10A69000641C072CE8D305B0F0BD3B4A1278002AB1
:10A6A00009D0354B002804D0002902D00A68002ABE
:10A6B00003D1184670473948704730B42F4B1C6897
:10A6C000002C02D030BC364870472C4C1A60CD8824
:10A6D000A5800D89E5804A89228109799972002136
:10A6E000017030BC0846704727492C4A0978002978
:10A6F00018D0002803D00178002913D101E01E48AA
:10A7000070471E490B68002B0CD0407800280BD1F5
:10A710001448837A012B07D09B0703D50089091DB4
:10A720007EDF0246104670471E48704710B4164A36
:10A730001A4B1278002A37D09A1D002805D000291C
:10A7400003D00278002A2FD102E010BC10467047D7
:10A750000A4C00222468002C26D0407800282ED1F4
:10A7600025E0000004280020F02700205FB601004B
:10A77000F1B50100418000000E800000102800208B
:10A780001C210020302700200C210020D827002089
:10A79000B02700201421002077A4010008800000C9
:10A7A000048000001080000010BC18467047FE486E
:10A7B000807A012803D0430704D5012005E010BCAE
:10A7C000FA487047400602D50220086000E00A609F
:10A7D00010BC00207047F0B4F54AF64B1278002AFE
:10A7E0001AD09A1D00280BD0002909D00C68002C23
:10A7F00006D08C68002C03D0007800280CD102E031
:10A80000F0BC10467047EC480068002804D00023D4
:10A8100018461A46E94D19E0F0BC1846704718244E
:10A8200054436419E67DF60705D18E688700F4511C
:10A83000E34E3254401CE67DB60704D410349F002A
:10A840000E685B1CF451521C072A05D20C799C42FD
:10A8500002D90C7B8442E2D80B710873F0BC002053
:10A860007047D8487047D2490A78D249002A0BD09D
:10A87000002803D00278002A06D101E0D2487047B0
:10A88000CD4A1268002A01D10846704730B5857854
:10A8900083B0072D0ED21820C84968434018C07DE8
:10A8A000FF2807D0A9B26A46C84800F077FE040026
:10A8B00003D00BE0BD4803B030BD4821684600F02E
:10A8C00047FF040002D1284600F0AEFB204603B04B
:10A8D00030BDF0B5B649B74A0B7883B0002B1DD018
:10A8E000002803D00078002818D102E0B64803B051
:10A8F000F0BDB1480068002810D00020AF4F0446DA
:10A9000018216143CE19F17DFF2923D0A1B26A46F7
:10A91000AE4800F043FE050003D01AE0104603B035
:10A92000F0BD4821684600F013FF050011D1304604
:10A93000113002F0A3F8002030607060B060F06069
:10A94000FF203074F0759A4801214268A1408A4383
:10A9500042602846641C072CD2D303B0F0BD70B50A
:10A96000054693480C460178924882B000292AD0C7
:10A97000811D002D26D0002C24D02978002922D139
:10A980008D49096800291ED06978884800291AD1A4
:10A990008549897A012916D0AE78072E13D218215D
:10A9A000864A71438918C97DFF290CD0A168002906
:10A9B0000ED06268002A0BD0102A09D22078012814
:10A9C00003D005E0084602B070BD814801F066FE84
:10A9D0006A4631467D4800F0E1FD20787D498000DF
:10A9E0000A5829466846904702B070BD30B5054602
:10A9F0006F480C4601786F4883B000291ED0811D36
:10AA0000002D1DD0002C1BD02978002916D16A49B1
:10AA10000968002912D0A878072814D218214843C1
:10AA200066494018C07DFF280DD068780C215E4A29
:10AA300041438918897A890708D4674803B030BD33
:10AA4000084603B030BD594803B030BDA1680029A5
:10AA500010D1616810290DD2217801290AD1142161
:10AA600048435E4914224018001DA0606878504396
:10AA700008586060A9786A46544800F08FFD207835
:10AA8000574980000A5829466846904703B030BDB0
:10AA900047490A784749002A17D0002803D002788E
:10AAA000002A12D101E048487047434A1268002A40
:10AAB0000BD0807807280AD2182148433F49401814
:10AAC000C07DFF2803D03F4870470846704737488D
:10AAD000704741487047404870473F487047344A84
:10AAE0001378344A002B11D0931D002905D000287B
:10AAF00003D00078002809D101E0184670472E4B9A
:10AB00001B68002B02D00870002070471046704769
:10AB1000F0B50E4683B0044681786A462B4800F0B3
:10AB20003DFD002825D160780C211F4F4843C019F6
:10AB3000807A80061FD4022E1DD0012E1DD0294DF3
:10AB4000A078182148431D4900234118182268465F
:10AB5000A847002813D0022E0BD020780C214843A0
:10AB600015494018807A1B4980000A5821466846DA
:10AB7000904703B0F0BD1C4DE2E71C4DE0E7022E0C
:10AB8000F7D060780C214843C019817ADF22114048
:10AB900081726078182148431549411818231A46D4
:10ABA0006846A847D9E7000004280020108000006C
:10ABB0000C210020088000001028002030270020F1
:10ABC00014210020908000000E8000001C21002035
:10ABD000F4270020A8DB010091800000F02700206E
:10ABE000B8DB010061A301005FB60100F1B501000F
:10ABF000D827002070B5FA4D04462A78F948002A73
:10AC00001AD0821D002C16D0002914D02278002AD8
:10AC100012D1F54A1268002A0ED0A07807280CD26B
:10AC200018225043F14A8018C27DFF2A05D062786D
:10AC3000FF2A04D016E0104670BDED4870BD0A78BA
:10AC4000022A0FD01030072201F028FDA178012040
:10AC5000884069680843686002212046FFF758FF72
:10AC6000002070BDE34870BD0B4610B5DC490A7882
:10AC7000DC49002A18D08A1D002826D0002B24D0B9
:10AC80000278002A10D1D84A1268002A0CD0CA1EB5
:10AC90008178FF290AD018204143D4480918C87D7B
:10ACA000800712D410310BE0084610BD4078FF2811
:10ACB0000BD00C214843D0494118887A800704D52D
:10ACC0000722184601F0EAFC0022104610BDF0B53C
:10ACD00004468DB0FF20C24908900978002959D058
:10ACE000C1490968002955D0694648738873C873FB
:10ACF0000021221D0592342309916A4613831173A2
:10AD0000BD482288C77A807A0E460D46102A0DD09B
:10AD1000A2880223184209D0B84B9A4203D0B64BFE
:10AD20001B89934202D16A46977356732288142A6C
:10AD30007ED022DC102A2FD0112A7AD0132A29D1D2
:10AD4000132069460874A088AD4A00217FDF0028DF
:10AD500020D1A94904208A7A02438A72C87AFF283E
:10AD600046D016206B461874A64846608660C660BA
:10AD70000661202002438A7216E1172A7CD09A4984
:10AD8000A14B897A8900182A77D0522A02D15958C2
:10AD900003A888470DB0F0BD974FC007C00FF9D08A
:10ADA0000220B8721121684601744673A188398166
:10ADB00038460722A11D01F071FC607BC10706D057
:10ADC00041089248405CFF2814D0089012E0A41D6E
:10ADD0000094864E0024182060438019103007220A
:10ADE000009901F00BFC002803D0641C072CF2D35F
:10ADF000DAE0089429460C225143C9190898C87210
:10AE00008A7A08231A438A726946887381B20AAA29
:10AE10007F4800F0C3FB002846D118207D496843D5
:10AE2000401818231A460AA900F050FC6E4801E0A9
:10AE300024E007E0807A784980000A5803A90AA82C
:10AE40009047B1E06C4CFD210840A072000704D58A
:10AE5000002103A8FFF75CFE08E06846807BFF281E
:10AE600004D000F0E1F8FF20694688731020A0723A
:10AE700012216846017497E008E087E0FF2F00D0B8
:10AE80006649A088002281DF0DB0F0BDFB225A493F
:10AE9000104088720646142069460874012002900A
:10AEA000A079002801D009907EE05A48E17A8170AB
:10AEB000A17A41702146001D14220C3101F0EEFBF5
:10AEC0004D49700670D5082006438E72FF2F07D0BB
:10AED000202006438E72002103A8FFF719FE63E0CD
:10AEE00008A80A9044494E48404F00261822724351
:10AEF000D219D27DFF2A08D0761C072EF6D30990EE
:10AF00000298002850D10DB0F0BD087802280AD070
:10AF1000304618225043C019FD22C2751030072256
:10AF200001F0BCFB04E018207043C019FE21C1757C
:10AF30000A9869460670089888730C212E4A69435E
:10AF40008918C872E07A40070BD5214620314EC9D6
:10AF500018206843C0194EC01038C17D4908490007
:10AF6000C175E07A00070CD518206843C619304631
:10AF700021461030303101F094FDF07DFD21084074
:10AF8000F075012103A8FFF7C3FD0DE01A4A402424
:10AF90002043907215206A461074595803A88847B8
:10AFA000002801D01F4809900F4804A9036803A88E
:10AFB000099A98476846007C1228A4D10C20454382
:10AFC0000D482818817A01299DD001218172891E9E
:10AFD0000181FF21C17201F05EFD0DB0F0BD0000E6
:10AFE0000C210020088000001028002030270020BD
:10AFF000108000000780000004280020FFFF0000F0
:10B0000014280020F0270020C8DB010014210020B4
:10B010001C210020D8270020B8DB0100DC270020FD
:10B02000438000004180000070B5044618204F495D
:10B03000604345182846113001F020FD00202860AB
:10B040006860A860E860FF212974E975484801211B
:10B050004268A1408A43426070BD002070470020D2
:10B060007047F0B589B00D4601901020694688817F
:10B0700068780C2148433F4F03AAC019008904A9EE
:10B08000AADF0026002834D16878142148433A4CBE
:10B09000694600198A89001D04A901F0AFFA002849
:10B0A000687806D0142148432158002910D0334F26
:10B0B0000FE00C214143C919897A890719D4142159
:10B0C00048430019066046608660C660066110E06D
:10B0D0002B4F69468A892250687814214843041905
:10B0E000201D04A9FBF782F8302314222146019881
:10B0F000B847304609B0F0BD0020704700207047C7
:10B1000070B50D460146687814221B4C5043001957
:10B11000302300F0DBFA002806D16978142251436D
:10B120006258521C00D1625070BD00207047002050
:10B130007047F0B44078142343430F4C0D4E0C2756
:10B140000021E558784380190A46002D07D0867AF9
:10B15000770604D5B60602D41919091DAAB20089CA
:10B16000A9DF002800D00748F0BC70473027002036
:10B170000C21002004280020F02700205FB60100E9
:10B18000F1B5010041800000FFB581B00F46FE4DD2
:10B19000049B03990646EA68194303208E46002A59
:10B1A00001D0E96803E0002911D00121E960039A88
:10B1B000F64B92001C040092072979D20A007A44C7
:10B1C00012799218974474051E314F76850002213A
:10B1D000ECE75869401C05D0206981B2586901F03C
:10B1E00009FB00E060692169401E89B2484321697A
:10B1F00009048A0C216989B2794321DF002857D1DB
:10B20000022154E0384620DF002851D1039900295B
:10B2100001D003214BE00499002904D1317804299D
:10B2200041D1072143E0042141E05869401C05D089
:10B23000206981B2586901F0DDFA00E06069216996
:10B24000401E89B248432169039A8BB27B43014671
:10B25000184621DF00282BD104990029E3D1317849
:10B26000042923D01FE05869401C05D0206981B211
:10B27000586901F0BFFA00E060692169401E89B297
:10B28000484371884218009813182069049A80B2C4
:10B290007843411800980818194621DF002807D183
:10B2A0003178042902D0052101E001E00621E9609E
:10B2B00005B0F0BD2069009980B2784340187188CC
:10B2C0008A08316921DF0028F2D171460029EDD1C9
:10B2D000A7E75869401C05D0206981B2586901F080
:10B2E00089FA00E060692169401E89B248432169FA
:10B2F00089B201F07FFA20DF0028D9D10721E96067
:10B3000005B0F0BDA2498A78012A7FD1F8B50024A2
:10B310009D4A8C70D368082B07D0022819D00328C7
:10B3200002D10D2000F0F1FAF8BD02280FD0147000
:10B3300048780028F8D000F04DFA0400F4D0112C21
:10B3400002D000F0E2FA204600F0DFFAF8BDD46047
:10B35000EEE78F4814250178694308188A49001DD3
:10B360008A88521C95B28D800278022A05D14688BF
:10B37000A902B14201D3012600E00026052A01D12D
:10B38000072B03D00021042A02D003E00121FAE7B1
:10B39000072B03D00027042A02D007E00127FAE791
:10B3A0004088AA02824201D3002B2DD000203943CD
:10B3B000014331431CD0744D2046EC6000F0A5FAE7
:10B3C000734814220178514309180C71CC800C6128
:10B3D00003224C61CA600C81AC804178491E4170E7
:10B3E0000178491CC9B201700A2901D30A390170D8
:10B3F000674840780028A9D000F0ECF90400A5D0F7
:10B40000112CA1D09DE701E00120D0E77047F8B5ED
:10B4100000205D4C5E4DA080E06028706870A870D0
:10B420000146032314224A4352191071D08010613F
:10B43000D3605061491C10810A29F3D30020534F77
:10B4400060807869534E401C05D0306981B27869BC
:10B4500001F0D0F900E0706931692B3889B24843B6
:10B46000A06000204C49A080086008818881488144
:10B470000861088388834883086208858885488531
:10B480000820E0607869401C05D0306981B2786995
:10B4900001F0B0F900E070693169401E89B248439B
:10B4A000316989B201F0A6F920DF002802D101211B
:10B4B000A9702170F8BDF8B5044633480F460078EE
:10B4C00000281ED0002C1ED0002F1CD02068002881
:10B4D00019D001252D07A688286980B2864222D876
:10B4E000102E20D3E088009000281CD02748416906
:10B4F000491C0AD02969406989B201F07BF90146EB
:10B5000004E00820F8BD0E20F8BD69692869491ECD
:10B5100080B21D4A4143009B906873431B189942B7
:10B5200001D3B10701D00720F8BD5388032B1AD0EF
:10B5300019491A013B6056187860706027688F506F
:10B54000A1883181E1887181A188E48800220E4FB1
:10B550006143521C2C6992B2A4B28C4205D22C6970
:10B56000A4B2091B02E00420F8BD00212C69A4B29A
:10B5700020182C69A4B28C42EBD9B8605B1CB28154
:10B580007B800020F8BD0000242100200010001066
:10B590001C28002000000010E828002070B4E44BB4
:10B5A0001B78002B19D000281AD0002A18D0036865
:10B5B000032B0FD2DF4C1E01A559002D0AD0456880
:10B5C0003019048961436918458940686543281822
:10B5D000884208D870BC0720704770BC08207047AC
:10B5E00070BC0E2070471360516070BC0020704723
:10B5F000F8B5CF4C2478002C1DD000291DD0002890
:10B600001BD00468032C14D22501CA4C6659002EA5
:10B610000FD02D196E892C896D686643761945689F
:10B62000AE4206D9002A04D0944202D3D618A642CC
:10B6300005D90720F8BD0820F8BD0E20F8BD0C463E
:10B640001C43A40701D1AC0701D01020F8BD009322
:10B6500013460A460146022000F030F9F8BDF8B55D
:10B66000B34C2478002C1DD000291DD000281BD0FD
:10B670000468032C14D22501AE4C6659002E0FD05D
:10B680002D196E892C896D68664376194568AE421E
:10B6900006D9002A04D0944202D3D618A64205D96E
:10B6A0000720F8BD0820F8BD0E20F8BD0C461C434D
:10B6B000A40701D1AC0701D01020F8BD00931346B8
:10B6C0000A460146052000F0F9F8F8BDF8B507462E
:10B6D00097480D460078164600281DD0002D1DD035
:10B6E000002F1BD02868032814D2924C0001215847
:10B6F00000290FD001194A89088949684243521824
:10B7000069688A4206D9002E04D0B04202D3F218EA
:10B71000824205D90720F8BD0820F8BD0E20F8BDEB
:10B7200038461843800701D1880701D01020F8BDA2
:10B73000C9183246384600F0B1FF0096286800224A
:10B74000000124583B4603212846A0470020F8BDAD
:10B7500038B5044676480D460078002816D0002CEF
:10B7600016D0206803281BD2010172484258002AD3
:10B7700016D00818438902894168534360685B18F2
:10B7800083420DD9830705D0102038BD082038BD6D
:10B790000E2038BD401A114601F02CF8002901D0C6
:10B7A000072038BD0020024600902B462146042089
:10B7B00000F084F838BD5E490978002906D00028D9
:10B7C00006D05D4949780160002070470820704725
:10B7D0000E207047F8B5584914230A780F205A43B1
:10B7E0005418241D524922788F88E668022A24D0F2
:10B7F00001252D07042A33D0052A1DD1286981B2DD
:10B80000304600F0F7FF0146A38828699A1980B2F4
:10B810004843101A820860881818861928694B1C3A
:10B8200080B25843801B83082046FFF7ADFC0028F8
:10B8300002D1414901228A70F8BDB80262882169AB
:10B84000121A0918A3883018181801239B029A426B
:10B8500002D2920821DFEAE7FF22013221DFE6E788
:10B86000A368344819010818018942894068B04228
:10B8700003D160885143814218D0042B16D0286927
:10B8800081B2304600F0B6FF0146286980B24843D5
:10B89000301A820828694B1C80B2584363889B1970
:10B8A000C01A83082046FFF76FFCC0E7286981B201
:10B8B000304600F09FFFC01920DFB8E7F8B51E4CF6
:10B8C000069E65780A2D1ED027787D19EDB20A2DC7
:10B8D00001D30A3DEDB214277D432D1928716A6109
:10B8E000086849682961E860EB802E81A178002012
:10B8F000002904D1FFF76EFF112800D100206178E4
:10B90000491C6170F8BD0420F8BD38B502460A48EC
:10B9100014230178074C59430818C36801791B01A7
:10B92000E458C388009343690C30A04738BD000039
:10B9300024210020E82800201C280020F8B5744CA1
:10B940006946607800F068FA002854D12078002514
:10B95000002850D96F4F01260C20616868434118B8
:10B96000087832463B68824013421DD08B68002B1A
:10B970001AD049780129E1688C4609D000293BD0CA
:10B9800001461846012263469847002820D12DE041
:10B99000002933D001461846002263469847002804
:10B9A00016D123E0984721E07B6813421ED08B68B4
:10B9B000002B1BD049780129E1688C460DD0002965
:10B9C0001CD00146184600226346984700280DD037
:10B9D00051A22821FAF790FC08E000290CD001467A
:10B9E00018460122634698470028F1D16D1C207843
:10B9F000EDB28542B0D3F8BD0121D3E70021D1E7F4
:10BA000070B5434D04460E462869FEF711F900282B
:10BA100008D140480660446034432246A96828693A
:10BA2000FEF79CF870BD052A01D207207047F8B5D3
:10BA30000C46374948600C70CB608A60621E00215A
:10BA4000D2B2002C13D0404D01240C2353431B18B9
:10BA50001E785F68B600BF00761937601E782346EF
:10BA6000B34019431346521ED2B2002BEDD1374BCF
:10BA70000A46374800F020F9002804D1354A002151
:10BA80003548FEF742F8F8BD21484168002901D148
:10BA90000820704710B5407800F049F910BD10B586
:10BAA0001B4C6068002808D0607800F083F90028FB
:10BAB00002D12069FEF7BCF810BD082010BDF8B512
:10BAC00005460C202A46424311480C464168561848
:10BAD00000290CD06946407800F09EF9002807D173
